:020000040804EE
:10000000000002207D090408050904080B09040802
:1000100011090408170904081D090408000000005C
:100020000000000000000000000000002309040898
:1000300031090408000000003F0904084D090408C4
:10004000CD090408CD090408CD090408CD09040828
:10005000CD090408CD090408CD090408CD09040818
:10006000CD090408CD090408CD090408CD09040808
:10007000CD090408CD090408CD090408CD090408F8
:10008000CD090408CD090408CD090408CD090408E8
:10009000CD090408CD090408CD090408CD090408D8
:1000A000CD090408CD090408CD090408CD090408C8
:1000B000CD090408CD090408CD090408CD090408B8
:1000C000CD090408CD090408CD090408CD090408A8
:1000D000CD090408CD090408CD090408CD09040898
:1000E000CD090408CD090408CD090408CD09040888
:1000F000CD090408CD090408CD090408CD09040878
:10010000CD090408CD090408CD090408CD09040867
:10011000CD090408CD090408CD090408CD09040857
:10012000CD090408CD090408CD090408CD09040847
:10013000CD090408CD090408CD090408CD09040837
:10014000CD090408CD090408CD090408CD09040827
:10015000CD090408CD090408CD090408CD09040817
:10016000CD090408CD090408CD090408CD09040807
:10017000CD090408CD090408CD09040800000000D9
:08018000CD090408CD090408B3
:1001880010B5054C237833B9044B13B10448AFF3C9
:1001980000800123237010BD6800002000000000CB
:1001A800242A040808B5034B1BB103490348AFF3DD
:1001B800008008BD000000006C000020242A04080C
:1001C800034613F8012B002AFBD1181A013870478F
:1001D80053B94AB9002908BF00281CBF4FF0FF31A6
:1001E8004FF0FF3000F074B9ADF1080C6DE904CEA2
:1001F80000F006F8DDF804E0DDE9022304B07047FA
:100208002DE9F047089D04468E46002B4DD18A42C1
:10021800944669D9B2FA82F252B101FA02F3C2F1F4
:10022800200120FA01F10CFA02FC41EA030E944085
:100238004FEA1C48210CBEFBF8F61FFA8CF708FBA6
:1002480016E341EA034306FB07F199420AD91CEB7E
:10025800030306F1FF3080F01F81994240F21C81B0
:10026800023E63445B1AA4B2B3FBF8F008FB1033F8
:1002780044EA034400FB07F7A7420AD91CEB04042D
:1002880000F1FF3380F00A81A74240F207816444FD
:10029800023840EA0640E41B00261DB1D440002382
:1002A800C5E900433146BDE8F0878B4209D9002DE6
:1002B80000F0EF800026C5E9000130463146BDE870
:1002C800F087B3FA83F6002E4AD18B4202D38242DA
:1002D80000F2F980841A61EB030301209E46002D89
:1002E800E0D0C5E9004EDDE702B9FFDEB2FA82F2DE
:1002F800002A40F09280A1EB0C014FEA1C471FFA3C
:100308008CFE0126200CB1FBF7F307FB131140EA22
:1003180001410EFB03F0884208D91CEB010103F1EF
:10032800FF3802D2884200F2CB804346091AA4B2B1
:10033800B1FBF7F007FB101144EA01440EFB00FE85
:10034800A64508D91CEB040400F1FF3102D2A645EA
:1003580000F2BB800846A4EB0E0440EA03409CE789
:10036800C6F12007B34022FA07FC4CEA030C20FA36
:1003780007F401FA06F31C43F9404FEA1C4900FA56
:1003880006F3B1FBF9F8200C1FFA8CFE09FB1811D3
:1003980040EA014108FB0EF0884202FA06F20BD946
:1003A8001CEB010108F1FF3A80F08880884240F296
:1003B8008580A8F102086144091AA4B2B1FBF9F0DA
:1003C80009FB101144EA014100FB0EFE8E4508D9D5
:1003D8001CEB010100F1FF346CD28E456AD902385A
:1003E800614440EA0840A0FB0294A1EB0E01A1423F
:1003F800C846A64656D353D05DB1B3EB080261EBAD
:100408000E0101FA07F722FA06F3F1401F43C5E986
:10041800007100263146BDE8F087C2F12003D840BC
:100428000CFA02FC21FA03F3914001434FEA1C47FE
:100438001FFA8CFEB3FBF7F007FB10360B0C43EAF0
:10044800064300FB0EF69E4204FA02F408D91CEBA0
:10045800030300F1FF382FD29E422DD9023863449E
:100468009B1B89B2B3FBF7F607FB163341EA03413E
:1004780006FB0EF38B4208D91CEB010106F1FF388D
:1004880016D28B4214D9023E6144C91A46EA004684
:1004980038E72E46284605E70646E3E61846F8E616
:1004A8004B45A9D2B9EB020864EB0C0E0138A3E75F
:1004B8004646EAE7204694E74046D1E7D0467BE740
:1004C800023B614432E7304609E76444023842E7B8
:1004D800704700BF80B588B000AF786000F054FC6A
:1004E8000223FB610123BB617B687B610023FB6006
:1004F8000023BB6007F1080207F10C0311461846F8
:1005080000F0A4FD00F062FC00BF2037BD4680BDAE
:10051800B0B582B000AF7860396000F035FC3B6858
:10052800DA171C46154622462B467968002000F04B
:10053800D7FB00F04BFC00BF0837BD46B0BD00003C
:1005480080B582B000AF00F03FFA00F07BF800F011
:100558000DF900F0E1F83248FFF732FE03469AB28F
:100568004FF496732E492F4801F015FE0720FFF728
:10057800B1FF4FF4967301222B492A4801F09DFEE2
:100588000346002BF5D1284B1B78312B21D14FF492
:100598008041264801F031F82548FFF711FE03464F
:1005A8009AB24FF4967322491E4801F0F4FD214B8C
:1005B8001B6803F1006303F5C0231E4A1268D2B218
:1005C80011461846FFF7A4FF1A4B1B680133194A56
:1005D8001360154B1B78322BCBD11748FFF7F0FD72
:1005E80003469AB24FF4967313490E4801F0D3FDAF
:1005F80001F0B6FC00F00AFA104B5B6A0F4A23F4CC
:10060800E02353620E4B1B687B604FF000631B684E
:100618003B603B6883F3088800BF7B689847A8E77E
:100628000000002084000020C8000020000C0240C8
:100638002C000020CC0000204800002000ED00E045
:100648000400000880B594B000AF07F12003302201
:100658000021184602F0DAF907F10C0300221A60AB
:100668005A609A60DA601A610023BB60284B1B6CE1
:10067800274A43F080531364254B1B6C03F08053C7
:10068800BB60BB6800237B60224B1B68214A43F494
:10069800804313601F4B1B6803F480437B607B68B7
:1006A80001233B624FF480337B620223BB634FF428
:1006B8008003FB6304233B64A8237B640223BB649D
:1006C8000423FB6407F12003184600F0B1FF03463A
:1006D800002B01D000F09CF80F23FB6002233B6144
:1006E80000237B614FF4A053BB614FF48053FB613F
:1006F80007F10C030521184601F012FA0346002BF6
:1007080001D000F085F800BF5037BD4680BD00BF5E
:10071800003802400070004080B500AF114B124A0B
:100728001A60104B4FF4E1325A600E4B00229A6067
:100738000C4B0022DA600B4B00221A61094B0C2289
:100748005A61084B00229A61064B0022DA6105487B
:1007580001F0D4FC0346002B01D000F059F800BF8B
:1007680080BD00BF84000020004C004080B588B0E8
:1007780000AF07F10C0300221A605A609A60DA6031
:100788001A610023BB60204B1B6B1F4A43F0800398
:1007980013631D4B1B6B03F08003BB60BB68002316
:1007A8007B60194B1B6B184A43F001031363164B0C
:1007B8001B6B03F001037B607B6800233B60124BDB
:1007C8001B6B114A43F0080313630F4B1B6B03F0B9
:1007D80008033B603B6800224FF480410B4800F05F
:1007E800F3FE4FF48043FB6001233B6100237B61F0
:1007F8000023BB6107F10C031946044800F048FDCB
:1008080000BF2037BD4680BD00380240000C0240C2
:1008180080B400AF72B600BFFEE7000080B483B0BA
:1008280000AF00237B60104B5B6C0F4A43F480439E
:1008380053640D4B5B6C03F480437B607B6800233F
:100848003B60094B1B6C084A43F080531364064B0A
:100858001B6C03F080533B603B6800BF0C37BD4600
:100868005DF8047B704700BF0038024080B58AB04D
:1008780000AF786007F1140300221A605A609A608A
:10088800DA601A617B681B68194A93422BD10023EE
:100898003B61184B1B6C174A43F400231364154B38
:1008A8001B6C03F400233B613B690023FB60114B85
:1008B8001B6B104A43F0010313630E4B1B6B03F0D1
:1008C8000103FB60FB6803237B610223BB610023F8
:1008D800FB6103233B6208237B6207F1140319467B
:1008E800054800F0D5FC00BF2837BD4680BD00BFD5
:1008F800004C0040003802400000024080B400AFC5
:10090800FEE780B400AFFEE780B400AFFEE780B436
:1009180000AFFEE780B400AFFEE780B400AF00BFD1
:10092800BD465DF8047B704780B400AF00BFBD468C
:100938005DF8047B704780B400AF00BFBD465DF82A
:10094800047B704780B500AF00F0C4F800BF80BDDD
:1009580080B400AF064BD3F88830054A43F47003DF
:10096800C2F8883000BFBD465DF8047B704700BF01
:1009780000ED00E0DFF834D00D480E490E4A0023A0
:1009880002E0D458C4500433C4188C42F9D30B4A3B
:100998000B4C002301E013600432A242FBD3FFF7A3
:1009A800D7FF02F00FF8FFF7CBFD704700000220D9
:1009B8000000002068000020642A04086800002065
:1009C800F4000020FEE7000080B500AF0E4B1B6866
:1009D8000D4A43F4007313600B4B1B680A4A43F437
:1009E80080631360084B1B68074A43F480731360E5
:1009F800032000F041F90F2000F03CF8FFF70EFF4C
:100A08000023184680BD00BF003C024080B500AFFF
:100A1800134B4FF0FF321A62114B00221A62104B2F
:100A28004FF0FF325A620E4B00225A620C4B4FF0C5
:100A3800FF321A610A4B00221A61094B4FF0FF324C
:100A48005A61074B00225A61054B4FF0FF329A61F9
:100A5800034B00229A6100F005F80023184680BD78
:100A68000038024080B400AF00BFBD465DF8047B8B
:100A78007047000080B582B000AF7860124B1A68EA
:100A8800124B1B7819464FF47A73B3FBF1F3B2FBA0
:100A9800F3F3184600F017F90346002B01D00123A1
:100AA8000EE07B680F2B0AD8002279684FF0FF30E0
:100AB80000F0EDF8064A7B681360002300E001238C
:100AC80018460837BD4680BD5C0000206400002041
:100AD8006000002080B400AF064B1B781A46064B16
:100AE8001B681344044A136000BFBD465DF8047BCD
:100AF800704700BF64000020D000002080B400AF21
:100B0800034B1B681846BD465DF8047B704700BF61
:100B1800D000002080B485B000AF78607B6803F017
:100B28000703FB600C4BDB68BB60BA684FF6FF033A
:100B38001340BB60FB681A02BB68134343F0BF63F2
:100B480043F40033BB60044ABB68D36000BF14376A
:100B5800BD465DF8047B704700ED00E080B400AF4F
:100B6800044BDB681B0A03F007031846BD465DF813
:100B7800047B704700ED00E080B483B000AF03460B
:100B88003960FB7197F90730002B0ADB3B68DAB252
:100B98000C4997F907301201D2B20B4483F80023AD
:100BA8000AE03B68DAB20849FB7903F00F03043B1B
:100BB8001201D2B20B441A7600BF0C37BD465DF85D
:100BC800047B704700E100E000ED00E080B489B0EC
:100BD80000AFF860B9607A60FB6803F00703FB6157
:100BE800FB69C3F10703042B28BF0423BB61FB691E
:100BF8000433062B02D9FB69033B00E000237B6129
:100C08004FF0FF32BB6902FA03F3DA43BB681A40BC
:100C18007B699A404FF0FF317B6901FA03F3D943AE
:100C28007B680B40134318462437BD465DF8047BA8
:100C38007047000080B582B000AF78607B68013BE8
:100C4800B3F1807F01D301230FE00A4A7B68013B9F
:100C580053600F214FF0FF30FFF78EFF054B002246
:100C68009A60044B07221A60002318460837BD46CD
:100C780080BD00BF10E000E080B582B000AF7860B2
:100C88007868FFF747FF00BF0837BD4680BD80B5CD
:100C980086B000AF0346B9607A60FB7300237B61BE
:100CA800FFF75CFF78617A68B9687869FFF78EFFAB
:100CB800024697F90F3011461846FFF75DFF00BF4F
:100CC8001837BD4680BD80B582B000AF78607868BF
:100CD800FFF7B0FF034618460837BD4680BD000041
:100CE80080B586B000AFF860B960C7E9002301237A
:100CF800FB75234B1B7E012B01D102233BE0204BCC
:100D080001221A764CF2503000F070F80346FB7559
:100D1800FB7D002B2BD1FB68002B05D13B781946B6
:100D2800B86800F01BF916E0FB68012B05D13B8879
:100D38001946B86800F0EEF80DE0FB68022B05D103
:100D48003B681946B86800F0C3F804E0D7E9002307
:100D5800B86800F08BF84CF2503000F047F80346C2
:100D6800FB75084B1B69074A23F001031361044B09
:100D780000221A76FB7D18461837BD4680BD00BF95
:100D8800D4000020003C024080B483B000AF0023B0
:100D9800FB710B4B1B69002B0BDA094B094A5A6094
:100DA800074B094A5A60064B1B69002B01DA0123DD
:100DB800FB71FB7918460C37BD465DF8047B70471C
:100DC800003C024023016745AB89EFCD80B400AFFA
:100DD800054B1B69044A43F000431361002318467E
:100DE800BD465DF8047B7047003C024080B584B086
:100DF80000AF78600023FB601A4B0022DA61FFF72E
:100E08007DFEF86010E07B68B3F1FF3F0CD07B6893
:100E1800002B07D0FFF772FE0246FB68D31A7A68E8
:100E28009A4201D2032319E00F4BDB6803F48033A5
:100E3800002BE8D10C4BDB6803F00103002B02D038
:100E4800094B0122DA60084BDB6803F0F203002B40
:100E580003D000F0A5F8012300E00023184610375E
:100E6800BD4680BDD4000020003C024080B485B05F
:100E780000AFF860C7E90023144B1B69134A23F439
:100E880040731361114B1B69104A43F4407313619B
:100E98000E4B1B690D4A43F001031361FB683A6866
:100EA8001A60BFF36F8F00BFD7E900014FF000024F
:100EB8004FF000030A000023F968043113460B6061
:100EC80000BF1437BD465DF8047B7047003C024004
:100ED80080B483B000AF786039600D4B1B690C4A51
:100EE80023F4407313610A4B1B69094A43F40073E6
:100EF8001361074B1B69064A43F0010313617B68C2
:100F08003A681A6000BF0C37BD465DF8047B70472D
:100F1800003C024080B483B000AF78600B467B8011
:100F28000D4B1B690C4A23F4407313610A4B1B6970
:100F3800094A43F480731361074B1B69064A43F05F
:100F4800010313617B687A881A8000BF0C37BD469D
:100F58005DF8047B704700BF003C024080B483B05A
:100F680000AF78600B46FB700C4B1B690B4A23F4EF
:100F780040731361094B094A1B691361074B1B69CD
:100F8800064A43F0010313617B68FA781A7000BFC0
:100F98000C37BD465DF8047B704700BF003C02403B
:100FA80080B400AF274BDB6803F01003002B08D098
:100FB800254BDB6943F01003234AD361214B1022F0
:100FC800DA60204BDB6803F02003002B08D01E4BAF
:100FD800DB6943F008031C4AD3611A4B2022DA600C
:100FE800184BDB6803F04003002B08D0164BDB6975
:100FF80043F00403144AD361124B4022DA60114BC8
:10100800DB6803F08003002B08D00F4BDB6943F04B
:1010180002030D4AD3610B4B8022DA60094BDB686F
:1010280003F00203002B08D0074BDB6943F02003D1
:10103800054AD361034B0222DA6000BFBD465DF862
:10104800047B7047003C0240D400002080B584B087
:1010580000AF786039600123FB730023BB60314B1C
:101068001B7E012B01D1022358E02E4B01221A7658
:101078004CF25030FFF7BAFE0346FB73FB7B002BA4
:1010880048D13B684FF0FF321A607B681B68012B20
:1010980015D17B681B69DAB27B685B681946104614
:1010A80000F044F84CF25030FFF7A0FE0346FB7303
:1010B8001D4B1B691C4A23F00403136128E07B685D
:1010C8009B68BB601CE07B681B69DBB21946B8688B
:1010D80000F050F84CF25030FFF788FE0346FB73DF
:1010E800114B1B69104A23F0FA031361FB7B002B99
:1010F80003D03B68BA681A600AE0BB680133BB607A
:101108007B68DA687B689B681344BA689A42DAD3CA
:1011180000F078F8034B00221A76FB7B184610374C
:10112800BD4680BDD4000020003C024080B483B09E
:1011380000AF03463960FB710D4B1B690C4A23F461
:10114800407313610A4B1B69094A43F00403136196
:10115800074B1A69FB791B021343054A43F4803392
:10116800136100BF0C37BD465DF8047B704700BFB4
:10117800003C024080B485B000AF78600B46FB703D
:101188000023FB60FB78002B02D10023FB6010E0FA
:10119800FB78012B03D14FF48073FB6009E0FB78E7
:1011A800022B03D14FF40073FB6002E04FF440734D
:1011B800FB60134B1B69124A23F440731361104BF5
:1011C8001A690F49FB6813430B610D4B1B690C4AE5
:1011D80023F0F80313610A4B1A697B68DB00134399
:1011E800074A43F002031361054B1B69044A43F4A1
:1011F8008033136100BF1437BD465DF8047B704728
:10120800003C024080B400AF204B1B6803F400731D
:10121800002B17D01D4B1B681C4A23F40073136066
:101228001A4B1B68194A43F400631360174B1B6879
:10123800164A23F400631360144B1B68134A43F4E3
:1012480000731360114B1B6803F48063002B17D0E5
:101258000E4B1B680D4A23F4806313600B4B1B680D
:101268000A4A43F480531360084B1B68074A23F467
:1012780080531360054B1B68044A43F48063136072
:1012880000BFBD465DF8047B704700BF003C0240CC
:1012980080B489B000AF7860396000237B61002397
:1012A8003B610023BB610023FB616BE10122FB6909
:1012B80002FA03F37B613B681B687A6913403B6160
:1012C8003A697B699A4240F05A813B685B6803F04F
:1012D8000303012B05D03B685B6803F00303022B73
:1012E80030D17B689B68BB61FB695B00032202FA13
:1012F80003F3DB43BA691340BB613B68DA68FB69F7
:101308005B0002FA03F3BA691343BB617B68BA69ED
:101318009A607B685B68BB610122FB6902FA03F390
:10132800DB43BA691340BB613B685B681B0903F088
:101338000102FB6902FA03F3BA691343BB617B68D4
:10134800BA695A603B685B6803F00303032B17D044
:101358007B68DB68BB61FB695B00032202FA03F36D
:10136800DB43BA691340BB613B689A68FB695B0061
:1013780002FA03F3BA691343BB617B68BA69DA609E
:101388003B685B6803F00303022B23D1FB69DA088F
:101398007B68083253F82230BB61FB6903F007030E
:1013A8009B000F2202FA03F3DB43BA691340BB61C7
:1013B8003B681A69FB6903F007039B0002FA03F311
:1013C800BA691343BB61FB69DA087B680832B969FB
:1013D80043F822107B681B68BB61FB695B00032232
:1013E80002FA03F3DB43BA691340BB613B685B68ED
:1013F80003F00302FB695B0002FA03F3BA691343C3
:10140800BB617B68BA691A603B685B6803F4403368
:10141800002B00F0B4800023FB60604B5B6C5F4ADC
:1014280043F4804353645D4B5B6C03F48043FB607F
:10143800FB685B4AFB699B08023352F82330BB61A7
:10144800FB6903F003039B000F2202FA03F3DB435B
:10145800BA691340BB617B68524A93422BD07B68C0
:10146800514A934225D07B68504A93421FD07B68EB
:101478004F4A934219D07B684E4A934213D07B68F7
:101488004D4A93420DD07B684C4A934207D07B6803
:101498004B4A934201D107230EE008230CE00623B0
:1014A8000AE0052308E0042306E0032304E00223FE
:1014B80002E0012300E00023FA6902F0030292002F
:1014C8009340BA691343BB613549FB699B080233F2
:1014D800BA6941F823203B4B9B68BB613B69DB43FE
:1014E800BA691340BB613B685B6803F48013002B47
:1014F80003D0BA693B691343BB61324ABB69936045
:10150800304BDB68BB613B69DB43BA691340BB61A5
:101518003B685B6803F40013002B03D0BA693B698E
:101528001343BB61274ABB69D360264B5B68BB6129
:101538003B69DB43BA691340BB613B685B6803F4F2
:101548000033002B03D0BA693B691343BB611D4AC2
:10155800BB6953601B4B1B68BB613B69DB43BA69C2
:101568001340BB613B685B6803F48033002B03D0F6
:10157800BA693B691343BB61124ABB691360FB69D3
:101588000133FB61FB690F2B7FF690AE00BF00BFF4
:101598002437BD465DF8047B704700BF0038024021
:1015A80000380140000002400004024000080240E8
:1015B800000C0240001002400014024000180240D3
:1015C800001C0240003C014080B483B000AF78604A
:1015D8000B467B8013467B707B78002B03D07A8880
:1015E8007B689A6103E07B881A047B689A6100BF74
:1015F8000C37BD465DF8047B704780B485B000AFFA
:1016080078600B467B807B685B69FB607A88FB6847
:1016180013401A04FB68D9437B880B401A437B6844
:101628009A6100BF1437BD465DF8047B704700001F
:1016380080B586B000AF78607B68002B01D10123AC
:1016480067E27B681B6803F00103002B75D0884BA9
:101658009B6803F00C03042B0CD0854B9B6803F0AC
:101668000C03082B12D1824B5B6803F48003B3F59B
:10167800800F0BD17E4B1B6803F40033002B5BD02B
:101688007B685B68002B57D1012342E27B685B686B
:10169800B3F5803F06D1764B1B68754A43F4803317
:1016A80013601DE07B685B68B3F5A02F0CD1704B0D
:1016B8001B686F4A43F4802313606D4B1B686C4AA8
:1016C80043F4803313600BE0694B1B68684A23F4CA
:1016D80080331360664B1B68654A23F480231360CC
:1016E8007B685B68002B13D0FFF708FA386108E0C5
:1016F800FFF704FA02463B69D31A642B01D9032386
:1017080007E25B4B1B6803F40033002BF0D014E0B6
:10171800FFF7F4F9386108E0FFF7F0F902463B6992
:10172800D31A642B01D90323F3E1514B1B6803F44B
:101738000033002BF0D100E000BF7B681B6803F08A
:101748000203002B63D04A4B9B6803F00C03002B69
:101758000BD0474B9B6803F00C03082B1CD1444B60
:101768005B6803F48003002B16D1414B1B6803F020
:101778000203002B05D07B68DB68012B01D0012315
:10178800C7E13B4B1B6823F0F8027B681B69DB0051
:10179800374913430B603AE07B68DB68002B20D0A5
:1017A800344B01221A60FFF7A9F9386108E0FFF706
:1017B800A5F902463B69D31A022B01D90323A8E1F4
:1017C8002B4B1B6803F00203002BF0D0284B1B683F
:1017D80023F0F8027B681B69DB00254913430B6083
:1017E80015E0244B00221A60FFF788F9386108E0F9
:1017F800FFF784F902463B69D31A022B01D9032368
:1018080087E11B4B1B6803F00203002BF0D17B68B8
:101818001B6803F00803002B36D07B685B69002B3C
:1018280016D0154B01221A60FFF768F9386108E0F5
:10183800FFF764F902463B69D31A022B01D9032347
:1018480067E10B4B5B6F03F00203002BF0D01BE04A
:10185800094B00221A60FFF751F938610EE0FFF7D3
:101868004DF902463B69D31A022B07D9032350E1ED
:101878000038024000004742800E4742884B5B6FA9
:1018880003F00203002BEAD17B681B6803F0040312
:10189800002B00F097800023FB75814B1B6C03F035
:1018A8008053002B0FD10023BB607D4B1B6C7C4AFF
:1018B80043F0805313647A4B1B6C03F08053BB6076
:1018C800BB680123FB75774B1B6803F48073002BFF
:1018D80018D1744B1B68734A43F480731360FFF785
:1018E8000DF9386108E0FFF709F902463B69D31A98
:1018F800022B01D903230CE16A4B1B6803F48073A4
:10190800002BF0D07B689B68012B06D1644B1B6FC2
:10191800634A43F0010313671CE07B689B68052B4F
:101928000CD15F4B1B6F5E4A43F0040313675C4B9B
:101938001B6F5B4A43F0010313670BE0584B1B6FA7
:10194800574A23F001031367554B1B6F544A23F082
:10195800040313677B689B68002B15D0FFF7CEF84C
:1019680038610AE0FFF7CAF802463B69D31A41F228
:101978008832934201D90323CBE0494B1B6F03F014
:101988000203002BEED014E0FFF7B8F838610AE044
:10199800FFF7B4F802463B69D31A41F28832934202
:1019A80001D90323B5E03E4B1B6F03F00203002B64
:1019B800EED1FB7D012B05D1394B1B6C384A23F046
:1019C800805313647B689B69002B00F0A180344B23
:1019D8009B6803F00C03082B5CD07B689B69022B87
:1019E80041D1314B00221A60FFF788F8386108E0CE
:1019F800FFF784F802463B69D31A022B01D9032367
:101A080087E0274B1B6803F00073002BF0D17B683D
:101A1800DA697B681B6A1A437B685B6A9B011A4315
:101A28007B689B6A5B08013B1B041A437B68DB6A83
:101A38001B061B4913434B601B4B01221A60FFF71F
:101A48005DF8386108E0FFF759F802463B69D31A98
:101A5800022B01D903235CE0114B1B6803F00073D0
:101A6800002BF0D054E0104B00221A60FFF746F824
:101A7800386108E0FFF742F802463B69D31A022BA7
:101A880001D9032345E0064B1B6803F00073002BC4
:101A9800F0D13DE07B689B69012B07D1012338E039
:101AA8000038024000700040600047421B4B5B68F2
:101AB800FB607B689B69012B28D0FB6803F48002DC
:101AC8007B68DB699A4221D1FB6803F03F027B689F
:101AD8001B6A9A421AD1FA6847F6C07313407A68AB
:101AE800526A9201934211D1FB6803F440327B6839
:101AF8009B6A5B08013B1B049A4207D1FB6803F011
:101B080070627B68DB6A1B069A4201D0012300E001
:101B1800002318461837BD4680BD00BF0038024074
:101B280080B584B000AF786039607B68002B01D144
:101B38000123CCE0684B1B6803F007033A689A421C
:101B48000CD9654B3A68D2B21A70634B1B6803F024
:101B580007033A689A4201D00123B8E07B681B6802
:101B680003F00203002B20D07B681B6803F00403FA
:101B7800002B05D0594B9B68584A43F4E0539360B7
:101B88007B681B6803F00803002B05D0534B9B6848
:101B9800524A43F460439360504B9B6823F0F00231
:101BA8007B689B684D4913438B607B681B6803F017
:101BB8000103002B44D07B685B68012B07D1474B9E
:101BC8001B6803F40033002B19D101237FE07B68E5
:101BD8005B68022B03D07B685B68032B07D13F4B04
:101BE8001B6803F00073002B09D101236FE03B4B06
:101BF8001B6803F00203002B01D1012367E0374B78
:101C08009B6823F003027B685B68344913438B604D
:101C1800FEF774FFF8600AE0FEF770FF0246FB6803
:101C2800D31A41F28832934201D903234FE02B4B58
:101C38009B6803F00C027B685B689B009A42EBD1BF
:101C4800254B1B6803F007033A689A420CD2224BD3
:101C58003A68D2B21A70204B1B6803F007033A683F
:101C68009A4201D0012332E07B681B6803F0040329
:101C7800002B08D0194B9B6823F4E0527B68DB6883
:101C8800164913438B607B681B6803F00803002B1D
:101C980009D0124B9B6823F460427B681B69DB0008
:101CA8000E4913438B6000F021F802460B4B9B68EA
:101CB8001B0903F00F030A49CB5C22FA03F3094A14
:101CC8001360094B1B681846FEF7D4FE002318461C
:101CD8001037BD4680BD00BF003C024000380240BE
:101CE8003C2A04085C000020600000202DE9B04F69
:101CF80094B000AF00237B640023FB6400233B64A3
:101D08000023BB64794B9B6803F00C03082B0DD0B0
:101D1800082B00F2E180002B02D0042B03D0DBE07B
:101D2800734BBB64DBE0734BBB64D8E06F4B5B6801
:101D380003F03F037B646D4B5B6803F48003002B67
:101D480063D06A4B5B689B090022BB63FA63BB6B79
:101D5800C3F308033B6300237B63D7E90C452246A2
:101D68002B464FF000004FF00001590141EAD261C3
:101D7800500102460B462146511A3961294663EB48
:101D880001037B614FF000024FF00003D7E904AB79
:101D980059468B01514643EA916351468A0151469F
:101DA800B2EB0108594663EB01094FF000024FF00E
:101DB80000034FEAC90343EA58734FEAC802904642
:101DC8009946234618EB0303BB602B4649EB0303F4
:101DD800FB604FF000024FF00003D7E902452946A7
:101DE8004B02214643EAD15321464A02104619467E
:101DF8007B6C0022BB62FA62D7E90A23FEF7E8F996
:101E080002460B461346FB6458E0384B5B689B0957
:101E1800002218461146C0F308033B6200237B6288
:101E2800D7E9088942464B464FF000004FF00001C1
:101E3800590141EAD261500102460B464146B2EBD4
:101E4800010A494663EB010B4FF000024FF0000313
:101E58004FEA8B1343EA9A634FEA8A12B2EB0A04F9
:101E680063EB0B054FF000024FF00003EB0043EA71
:101E78005473E20014461D464346E3183B604B4644
:101E880045EB03037B604FF000024FF00003D7E9F6
:101E9800004529468B02214643EA915321468A028E
:101EA800104619467B6C0022BB61FA61D7E906230C
:101EB800FEF78EF902460B461346FB640B4B5B6834
:101EC8001B0C03F0030301335B003B64FA6C3B6CAF
:101ED800B2FBF3F3BB6402E0054BBB6400BFBB6C11
:101EE80018465037BD46BDE8B08F00BF00380240E5
:101EF8000024F40000127A0080B400AF034B1B6882
:101F08001846BD465DF8047B704700BF5C000020A2
:101F180080B500AFFFF7F0FF0246054B9B689B0AB0
:101F280003F007030349CB5C22FA03F3184680BD8C
:101F3800003802404C2A040880B500AFFFF7DCFFE8
:101F48000246054B9B685B0B03F007030349CB5C18
:101F580022FA03F3184680BD003802404C2A0408D0
:101F680080B582B000AFFEF7C9FD78605D4B1B6895
:101F78005C4A43F00103136008E0FEF7BFFD024628
:101F88007B68D31A022B01D90323A7E0554B1B68A2
:101F980003F00203002BF0D0524B1B68514A43F068
:101FA80080031360FEF7AAFD78604E4B00229A600A
:101FB8000AE0FEF7A3FD02467B68D31A41F2883295
:101FC800934201D9032389E0464B9B6803F00C0335
:101FD800002BEED1FEF792FD7860424B1B68414A18
:101FE80023F45023136008E0FEF788FD02467B685F
:101FF800D31A642B01D9032370E03A4B1B6803F40E
:102008000033002BF0D1FEF779FD7860354B1B6863
:10201800344A23F08073136008E0FEF76FFD024630
:102028007B68D31A022B01D9032357E02D4B1B6879
:1020380003F00073002BF0D1FEF760FD7860294BA8
:102048001B68284A23F08063136008E0FEF756FDFA
:1020580002467B68D31A022B01D903233EE0214BA9
:102068001B6803F00063002BF0D11E4B1E4A5A6018
:102078001C4B1E4AC3F884201A4BDB68194A23F408
:10208800F853D360174BDB68164A23F40053D36028
:10209800144BDB68134A43F41F03D360114BDB680E
:1020A800104A43F40013D3600E4B5B6F0D4A23F0C4
:1020B800010353670B4B5B6F0A4A43F08073536706
:1020C8000B4B0C4A1A600C4B1B681846FEF7D2FCE7
:1020D8000346002B01D0012300E0002318460837EF
:1020E800BD4680BD0038024010300004003000209A
:1020F8005C0000200024F4006000002080B582B05D
:1021080000AF78607B68002B01D101233FE07B683A
:1021180093F83D30DBB2002B06D17B68002283F8B0
:102128003C207868FEF7A2FB7B68242283F83D20D8
:102138007B681B68DA687B681B6822F40052DA60E7
:10214800786800F0CBF97B681B681A697B681B68A4
:1021580022F490421A617B681B685A697B681B6885
:1021680022F02A025A617B681B68DA687B681B6860
:1021780042F40052DA607B6800221A647B682022ED
:1021880083F83D207B68202283F83E2000231846F0
:102198000837BD4680BD80B58AB002AFF860B96027
:1021A8003B601346FB8000237B61FB6893F83D305E
:1021B800DBB2202B7CD1BB68002B02D0FB88002B24
:1021C80001D1012375E0FB6893F83C30012B01D164
:1021D80002236EE0FB68012283F83C20FB680022A2
:1021E8001A64FB68212283F83D20FEF787FC78619A
:1021F800FB68FA889A84FB68FA88DA84FB689B682B
:10220800B3F5805F08D1FB681B69002B04D100235C
:10221800FB61BB68BB6103E0BB68FB610023BB617A
:10222800FB68002283F83C202AE03B6800937B6926
:1022380000228021F86800F0E2F80346002B01D064
:10224800032336E0FB69002B0BD1BB691B881A46B8
:10225800FB681B68C2F308025A60BB690233BB61A2
:1022680007E0FB691A78FB681B685A60FB69013351
:10227800FB61FB68DB8C9BB2013B9AB2FB68DA849A
:10228800FB68DB8C9BB2002BCFD13B6800937B694A
:1022980000224021F86800F0B2F80346002B01D074
:1022A800032306E0FB68202283F83D20002300E09A
:1022B800022318462037BD4680BD80B58AB002AFDC
:1022C800F860B9603B601346FB8000237B61FB68C4
:1022D80093F83E30DBB2202B40F08C80BB68002B9B
:1022E80002D0FB88002B01D1012384E0FB6893F81E
:1022F8003C30012B01D102237DE0FB68012283F8E9
:102308003C20FB6800221A64FB68222283F83E20E6
:10231800FB6800221A63FEF7F1FB7861FB68FA8814
:102328009A85FB68FA88DA85FB689B68B3F5805F55
:1023380008D1FB681B69002B04D10023FB61BB6833
:10234800BB6103E0BB68FB610023BB61FB68002243
:1023580083F83C2043E03B6800937B6900222021FE
:10236800F86800F04CF80346002B01D0032342E044
:10237800FB69002B0CD1FB681B685B689BB2C3F33D
:1023880008039AB2BB691A80BB690233BB611FE0BC
:10239800FB689B68B3F5805F07D0FB689B68002BE0
:1023A8000AD1FB681B69002B06D1FB681B685B68B8
:1023B800DAB2FB691A7008E0FB681B685B68DBB27D
:1023C80003F07F03DAB2FB691A70FB690133FB6122
:1023D800FB68DB8D9BB2013B9AB2FB68DA85FB6830
:1023E800DB8D9BB2002BB6D1FB68202283F83E2000
:1023F800002300E0022318462037BD4680BD80B583
:1024080090B000AFF860B9603B601346FB7150E0D4
:10241800BB6CB3F1FF3F4CD0BB6C002B07D0FEF771
:102428006DFB02463B68D31ABA6C9A4241D2FB68EC
:102438001B680C33BB62BB6A53E8003F7B627B6A54
:1024480023F4D073FB63FB681B680C33FA6B7A6365
:102458003B63396B7A6B41E80023FB62FB6A002B14
:10246800E5D1FB681B6814337B617B6953E8003F47
:102478003B613B6923F00103BB63FB681B681433B2
:10248800BA6B3A62FB61F9693A6A41E80023BB61B9
:10249800BB69002BE5D1FB68202283F83D20FB684F
:1024A800202283F83E20FB68002283F83C20032387
:1024B8000FE0FB681B681A68BB681340BA689A4249
:1024C8000CBF01230023DBB21A46FB799A429FD046
:1024D800002318464037BD4680BD00002DE9B04FA7
:1024E800C0B000AFC7F8F400D7F8F4301B681B6918
:1024F80023F44050D7F8F430D968D7F8F4301A6884
:1025080040EA01031361D7F8F4309A68D7F8F43039
:102518001B691A43D7F8F4305B691A43D7F8F430CB
:10252800DB691343C7F8F830D7F8F4301B68DB6869
:1025380023F4164121F00C01D7F8F4301A68D7F8C3
:10254800F8300B43D360D7F8F4301B685B6923F489
:102558004070D7F8F4309969D7F8F4301A6840EA2F
:1025680001035361D7F8F4301A688F4B9A4205D0AB
:10257800D7F8F4301A688D4B9A4204D1FFF7DCFC87
:10258800C7F8FC0003E0FFF7C3FCC7F8FC00D7F866
:10259800F430DB69B3F5004F40F00C81D7F8FC301C
:1025A8000022C7F8E830C7F8EC20D7E93A452246B8
:1025B8002B469118B9655B41FB65D7E9162321467F
:1025C80012EB0108294643EB01094FF000024FF0D6
:1025D80000034FEAC90343EA58734FEAC80290461A
:1025E8009946234618EB0303C7F8E0302B4649EB1E
:1025F8000303C7F8E430D7F8F4305B680022C7F863
:10260800D830C7F8DC20D7E936120B46DB183B6513
:10261800134642EB03037B65D7E91423D7E9380156
:10262800FDF7D6FD02460B46614BA3FB02235B096F
:102638001C01D7F8FC300022C7F8D030C7F8D420E6
:10264800D7E9348942464B469118B9645B41FB642B
:10265800D7E91223414612EB010A494643EB010B25
:102668004FF000024FF000034FEACB0343EA5A73DE
:102678004FEACA0292469B4643461AEB0303C7F841
:10268800C8304B464BEB0303C7F8CC30D7F8F430CF
:102698005B680022C7F8C030C7F8C420D7E93012F9
:1026A8000B46DB183B64134642EB03037B64D7E914
:1026B8001023D7E93201FDF78BFD02460B46114680
:1026C8003B4BA3FB01235B09642202FB03F3CB1AF8
:1026D800DB0003F13202364BA3FB02235B095B00EC
:1026E80003F4F8731C44D7F8FC300022C7F8B8305C
:1026F800C7F8BC20D7E92E8942464B469118B963E2
:102708005B41FB63D7E90E234146511839634946BB
:102718004B417B634FF000024FF00003D7E90CAB4D
:102728005946CB00514643EA51735146CA001046F8
:102738001946034642469B18C7F8B0304B460A462E
:1027480042EB0303C7F8B430D7F8F4305B680022D3
:10275800C7F8A830C7F8AC20D7E92A120B46DB180F
:10276800BB62134642EB0303FB62D7E90A23D7E9AE
:102778002C01FDF72DFD02460B460D4BA3FB021362
:102788005B09642101FB03F3D31ADB003233084AE7
:10279800A2FB03235B0903F00702D7F8F4301B6898
:1027A80022449A6005E100BF001001400014014076
:1027B8001F85EB51D7F8FC300022C7F8A030C7F8C6
:1027C800A420D7E9288942464B46911839625B41D3
:1027D8007B62D7E9082341465418494643EB010573
:1027E8004FF000024FF00003EB0043EA5473E2009D
:1027F80014461D464346E318C7F898304B4645EB48
:102808000303C7F89C30D7F8F4305B680022C7F898
:102818009030C7F894204FF000024FF00003D7E93A
:10282800244529468B00214643EA917321468A00B4
:10283800D7E92601FDF7CCFC02460B46604BA3FB0B
:1028480002235B091C01D7F8FC300022C7F8883046
:10285800C7F88C20D7E9228942464B469118B961BE
:102868005B41FB61D7E90623414651183961494666
:102878004B417B614FF000024FF00003D7E904ABF6
:102888005946CB00514643EA51735146CA00104697
:102898001946034642469B18C7F880304B460A46FD
:1028A80042EB0303C7F88430D7F8F4305B680022A2
:1028B800BB67FA674FF000024FF00003D7E91E89A3
:1028C80049468B00414643EA917341468A00D7E95D
:1028D8002001FDF77DFC02460B46394BA3FB021392
:1028E8005B09642101FB03F3D31A1B013233344A19
:1028F800A2FB03235B0903F0F0031C44D7F8FC3068
:1029080000223B677A67D7E91C8942464B469118F3
:10291800B9605B41FB60D7E9022341465118396031
:1029280049464B417B604FF000024FF00003D7E966
:1029380000AB5946CB00514643EA51735146CA0091
:1029480010461946034642469B18BB664B460A4644
:1029580042EB0303FB66D7F8F4305B6800223B6662
:102968007A664FF000024FF00003D7E9188949460C
:102978008B00414643EA917341468A00D7E91A0120
:10298800FDF726FC02460B460D4BA3FB02135B0921
:10299800642101FB03F3D31A1B013233084AA2FB5B
:1029A80003235B0903F00F02D7F8F4301B682244B5
:1029B8009A6000BF07F58077BD46BDE8B08F00BFBD
:1029C8001F85EB5170B50D4D0D4C641BA4100026EE
:1029D800A64209D10B4D0C4C00F020F8641BA41042
:1029E8000026A64205D170BD55F8043B984701362C
:1029F800EEE755F8043B98470136F2E75C2A0408ED
:102A08005C2A04085C2A0408602A04080244034675
:102A1800934200D1704703F8011BF9E7F8B500BFEE
:102A2800F8BC08BC9E467047F8B500BFF8BC08BCA7
:042A38009E467047FF
:102A3C000000000000000000010203040607080962
:082A4C00000000000102030478
:082A5400B4D7FF7F0100000070
:042A5C00AD010408BC
:042A600089010408DC
:102A640044616E672063686179206368756F6E677F
:102A7400207472696E68207570646174652066697B
:102A8400726D776172650D0A0000000075706461F3
:102A94007465206669726D776172652073656E6412
:102AA40020646174610D0A0054726F20766520629F
:102AB4006F6F746C6F616465720D0A000024F4001A
:082AC4001000000001000000F9
:040000050804097D65
:00000001FF
